{
	"Lottery/lottery.sol": {
		"Lottery": {
			"abi": [
				{
					"inputs": [],
					"stateMutability": "nonpayable",
					"type": "constructor"
				},
				{
					"inputs": [],
					"name": "manager",
					"outputs": [
						{
							"internalType": "address",
							"name": "",
							"type": "address"
						}
					],
					"stateMutability": "view",
					"type": "function"
				},
				{
					"inputs": [
						{
							"internalType": "uint256",
							"name": "",
							"type": "uint256"
						}
					],
					"name": "players",
					"outputs": [
						{
							"internalType": "address payable",
							"name": "",
							"type": "address"
						}
					],
					"stateMutability": "view",
					"type": "function"
				}
			],
			"devdoc": {
				"kind": "dev",
				"methods": {},
				"version": 1
			},
			"evm": {
				"assembly": "    /* \"Lottery/lottery.sol\":60:201  contract Lottery{... */\n  mstore(0x40, 0x80)\n    /* \"Lottery/lottery.sol\":149:199  constructor(){... */\n  callvalue\n  dup1\n  iszero\n  tag_1\n  jumpi\n  0x00\n  dup1\n  revert\ntag_1:\n  pop\n    /* \"Lottery/lottery.sol\":182:192  msg.sender */\n  caller\n    /* \"Lottery/lottery.sol\":172:179  manager */\n  0x01\n  0x00\n    /* \"Lottery/lottery.sol\":172:192  manager = msg.sender */\n  0x0100\n  exp\n  dup2\n  sload\n  dup2\n  0xffffffffffffffffffffffffffffffffffffffff\n  mul\n  not\n  and\n  swap1\n  dup4\n  0xffffffffffffffffffffffffffffffffffffffff\n  and\n  mul\n  or\n  swap1\n  sstore\n  pop\n    /* \"Lottery/lottery.sol\":60:201  contract Lottery{... */\n  dataSize(sub_0)\n  dup1\n  dataOffset(sub_0)\n  0x00\n  codecopy\n  0x00\n  return\nstop\n\nsub_0: assembly {\n        /* \"Lottery/lottery.sol\":60:201  contract Lottery{... */\n      mstore(0x40, 0x80)\n      callvalue\n      dup1\n      iszero\n      tag_1\n      jumpi\n      0x00\n      dup1\n      revert\n    tag_1:\n      pop\n      jumpi(tag_2, lt(calldatasize, 0x04))\n      shr(0xe0, calldataload(0x00))\n      dup1\n      0x481c6a75\n      eq\n      tag_3\n      jumpi\n      dup1\n      0xf71d96cb\n      eq\n      tag_4\n      jumpi\n    tag_2:\n      0x00\n      dup1\n      revert\n        /* \"Lottery/lottery.sol\":120:142  address public manager */\n    tag_3:\n      tag_5\n      tag_6\n      jump\t// in\n    tag_5:\n      mload(0x40)\n      tag_7\n      swap2\n      swap1\n      tag_8\n      jump\t// in\n    tag_7:\n      mload(0x40)\n      dup1\n      swap2\n      sub\n      swap1\n      return\n        /* \"Lottery/lottery.sol\":82:114  address payable[] public players */\n    tag_4:\n      tag_9\n      0x04\n      dup1\n      calldatasize\n      sub\n      dup2\n      add\n      swap1\n      tag_10\n      swap2\n      swap1\n      tag_11\n      jump\t// in\n    tag_10:\n      tag_12\n      jump\t// in\n    tag_9:\n      mload(0x40)\n      tag_13\n      swap2\n      swap1\n      tag_14\n      jump\t// in\n    tag_13:\n      mload(0x40)\n      dup1\n      swap2\n      sub\n      swap1\n      return\n        /* \"Lottery/lottery.sol\":120:142  address public manager */\n    tag_6:\n      0x01\n      0x00\n      swap1\n      sload\n      swap1\n      0x0100\n      exp\n      swap1\n      div\n      0xffffffffffffffffffffffffffffffffffffffff\n      and\n      dup2\n      jump\t// out\n        /* \"Lottery/lottery.sol\":82:114  address payable[] public players */\n    tag_12:\n      0x00\n      dup2\n      dup2\n      sload\n      dup2\n      lt\n      tag_15\n      jumpi\n      0x00\n      dup1\n      revert\n    tag_15:\n      swap1\n      0x00\n      mstore\n      keccak256(0x00, 0x20)\n      add\n      0x00\n      swap2\n      pop\n      sload\n      swap1\n      0x0100\n      exp\n      swap1\n      div\n      0xffffffffffffffffffffffffffffffffffffffff\n      and\n      dup2\n      jump\t// out\n        /* \"#utility.yul\":7:146   */\n    tag_18:\n        /* \"#utility.yul\":53:58   */\n      0x00\n        /* \"#utility.yul\":91:97   */\n      dup2\n        /* \"#utility.yul\":78:98   */\n      calldataload\n        /* \"#utility.yul\":69:98   */\n      swap1\n      pop\n        /* \"#utility.yul\":107:140   */\n      tag_20\n        /* \"#utility.yul\":134:139   */\n      dup2\n        /* \"#utility.yul\":107:140   */\n      tag_21\n      jump\t// in\n    tag_20:\n        /* \"#utility.yul\":7:146   */\n      swap3\n      swap2\n      pop\n      pop\n      jump\t// out\n        /* \"#utility.yul\":152:481   */\n    tag_11:\n        /* \"#utility.yul\":211:217   */\n      0x00\n        /* \"#utility.yul\":260:262   */\n      0x20\n        /* \"#utility.yul\":248:257   */\n      dup3\n        /* \"#utility.yul\":239:246   */\n      dup5\n        /* \"#utility.yul\":235:258   */\n      sub\n        /* \"#utility.yul\":231:263   */\n      slt\n        /* \"#utility.yul\":228:347   */\n      iszero\n      tag_23\n      jumpi\n        /* \"#utility.yul\":266:345   */\n      tag_24\n      tag_25\n      jump\t// in\n    tag_24:\n        /* \"#utility.yul\":228:347   */\n    tag_23:\n        /* \"#utility.yul\":386:387   */\n      0x00\n        /* \"#utility.yul\":411:464   */\n      tag_26\n        /* \"#utility.yul\":456:463   */\n      dup5\n        /* \"#utility.yul\":447:453   */\n      dup3\n        /* \"#utility.yul\":436:445   */\n      dup6\n        /* \"#utility.yul\":432:454   */\n      add\n        /* \"#utility.yul\":411:464   */\n      tag_18\n      jump\t// in\n    tag_26:\n        /* \"#utility.yul\":401:464   */\n      swap2\n      pop\n        /* \"#utility.yul\":357:474   */\n      pop\n        /* \"#utility.yul\":152:481   */\n      swap3\n      swap2\n      pop\n      pop\n      jump\t// out\n        /* \"#utility.yul\":487:629   */\n    tag_27:\n        /* \"#utility.yul\":590:622   */\n      tag_29\n        /* \"#utility.yul\":616:621   */\n      dup2\n        /* \"#utility.yul\":590:622   */\n      tag_30\n      jump\t// in\n    tag_29:\n        /* \"#utility.yul\":585:588   */\n      dup3\n        /* \"#utility.yul\":578:623   */\n      mstore\n        /* \"#utility.yul\":487:629   */\n      pop\n      pop\n      jump\t// out\n        /* \"#utility.yul\":635:753   */\n    tag_31:\n        /* \"#utility.yul\":722:746   */\n      tag_33\n        /* \"#utility.yul\":740:745   */\n      dup2\n        /* \"#utility.yul\":722:746   */\n      tag_34\n      jump\t// in\n    tag_33:\n        /* \"#utility.yul\":717:720   */\n      dup3\n        /* \"#utility.yul\":710:747   */\n      mstore\n        /* \"#utility.yul\":635:753   */\n      pop\n      pop\n      jump\t// out\n        /* \"#utility.yul\":759:981   */\n    tag_8:\n        /* \"#utility.yul\":852:856   */\n      0x00\n        /* \"#utility.yul\":890:892   */\n      0x20\n        /* \"#utility.yul\":879:888   */\n      dup3\n        /* \"#utility.yul\":875:893   */\n      add\n        /* \"#utility.yul\":867:893   */\n      swap1\n      pop\n        /* \"#utility.yul\":903:974   */\n      tag_36\n        /* \"#utility.yul\":971:972   */\n      0x00\n        /* \"#utility.yul\":960:969   */\n      dup4\n        /* \"#utility.yul\":956:973   */\n      add\n        /* \"#utility.yul\":947:953   */\n      dup5\n        /* \"#utility.yul\":903:974   */\n      tag_31\n      jump\t// in\n    tag_36:\n        /* \"#utility.yul\":759:981   */\n      swap3\n      swap2\n      pop\n      pop\n      jump\t// out\n        /* \"#utility.yul\":987:1241   */\n    tag_14:\n        /* \"#utility.yul\":1096:1100   */\n      0x00\n        /* \"#utility.yul\":1134:1136   */\n      0x20\n        /* \"#utility.yul\":1123:1132   */\n      dup3\n        /* \"#utility.yul\":1119:1137   */\n      add\n        /* \"#utility.yul\":1111:1137   */\n      swap1\n      pop\n        /* \"#utility.yul\":1147:1234   */\n      tag_38\n        /* \"#utility.yul\":1231:1232   */\n      0x00\n        /* \"#utility.yul\":1220:1229   */\n      dup4\n        /* \"#utility.yul\":1216:1233   */\n      add\n        /* \"#utility.yul\":1207:1213   */\n      dup5\n        /* \"#utility.yul\":1147:1234   */\n      tag_27\n      jump\t// in\n    tag_38:\n        /* \"#utility.yul\":987:1241   */\n      swap3\n      swap2\n      pop\n      pop\n      jump\t// out\n        /* \"#utility.yul\":1328:1424   */\n    tag_34:\n        /* \"#utility.yul\":1365:1372   */\n      0x00\n        /* \"#utility.yul\":1394:1418   */\n      tag_42\n        /* \"#utility.yul\":1412:1417   */\n      dup3\n        /* \"#utility.yul\":1394:1418   */\n      tag_43\n      jump\t// in\n    tag_42:\n        /* \"#utility.yul\":1383:1418   */\n      swap1\n      pop\n        /* \"#utility.yul\":1328:1424   */\n      swap2\n      swap1\n      pop\n      jump\t// out\n        /* \"#utility.yul\":1430:1534   */\n    tag_30:\n        /* \"#utility.yul\":1475:1482   */\n      0x00\n        /* \"#utility.yul\":1504:1528   */\n      tag_45\n        /* \"#utility.yul\":1522:1527   */\n      dup3\n        /* \"#utility.yul\":1504:1528   */\n      tag_43\n      jump\t// in\n    tag_45:\n        /* \"#utility.yul\":1493:1528   */\n      swap1\n      pop\n        /* \"#utility.yul\":1430:1534   */\n      swap2\n      swap1\n      pop\n      jump\t// out\n        /* \"#utility.yul\":1540:1666   */\n    tag_43:\n        /* \"#utility.yul\":1577:1584   */\n      0x00\n        /* \"#utility.yul\":1617:1659   */\n      0xffffffffffffffffffffffffffffffffffffffff\n        /* \"#utility.yul\":1610:1615   */\n      dup3\n        /* \"#utility.yul\":1606:1660   */\n      and\n        /* \"#utility.yul\":1595:1660   */\n      swap1\n      pop\n        /* \"#utility.yul\":1540:1666   */\n      swap2\n      swap1\n      pop\n      jump\t// out\n        /* \"#utility.yul\":1672:1749   */\n    tag_47:\n        /* \"#utility.yul\":1709:1716   */\n      0x00\n        /* \"#utility.yul\":1738:1743   */\n      dup2\n        /* \"#utility.yul\":1727:1743   */\n      swap1\n      pop\n        /* \"#utility.yul\":1672:1749   */\n      swap2\n      swap1\n      pop\n      jump\t// out\n        /* \"#utility.yul\":1878:1995   */\n    tag_25:\n        /* \"#utility.yul\":1987:1988   */\n      0x00\n        /* \"#utility.yul\":1984:1985   */\n      dup1\n        /* \"#utility.yul\":1977:1989   */\n      revert\n        /* \"#utility.yul\":2001:2123   */\n    tag_21:\n        /* \"#utility.yul\":2074:2098   */\n      tag_53\n        /* \"#utility.yul\":2092:2097   */\n      dup2\n        /* \"#utility.yul\":2074:2098   */\n      tag_47\n      jump\t// in\n    tag_53:\n        /* \"#utility.yul\":2067:2072   */\n      dup2\n        /* \"#utility.yul\":2064:2099   */\n      eq\n        /* \"#utility.yul\":2054:2117   */\n      tag_54\n      jumpi\n        /* \"#utility.yul\":2113:2114   */\n      0x00\n        /* \"#utility.yul\":2110:2111   */\n      dup1\n        /* \"#utility.yul\":2103:2115   */\n      revert\n        /* \"#utility.yul\":2054:2117   */\n    tag_54:\n        /* \"#utility.yul\":2001:2123   */\n      pop\n      jump\t// out\n\n    auxdata: 0xa26469706673582212208ca035b59ba9efeda09d592edd70ec4a26a0efd8906903b0c6276dfacf25780b64736f6c63430008070033\n}\n",
				"bytecode": {
					"linkReferences": {},
					"object": "608060405234801561001057600080fd5b5033600160006101000a81548173ffffffffffffffffffffffffffffffffffffffff021916908373ffffffffffffffffffffffffffffffffffffffff160217905550610224806100616000396000f3fe608060405234801561001057600080fd5b50600436106100365760003560e01c8063481c6a751461003b578063f71d96cb14610059575b600080fd5b610043610089565b604051610050919061014e565b60405180910390f35b610073600480360381019061006e9190610103565b6100af565b6040516100809190610169565b60405180910390f35b600160009054906101000a900473ffffffffffffffffffffffffffffffffffffffff1681565b600081815481106100bf57600080fd5b906000526020600020016000915054906101000a900473ffffffffffffffffffffffffffffffffffffffff1681565b6000813590506100fd816101d7565b92915050565b600060208284031215610119576101186101d2565b5b6000610127848285016100ee565b91505092915050565b61013981610196565b82525050565b61014881610184565b82525050565b6000602082019050610163600083018461013f565b92915050565b600060208201905061017e6000830184610130565b92915050565b600061018f826101a8565b9050919050565b60006101a1826101a8565b9050919050565b600073ffffffffffffffffffffffffffffffffffffffff82169050919050565b6000819050919050565b600080fd5b6101e0816101c8565b81146101eb57600080fd5b5056fea26469706673582212208ca035b59ba9efeda09d592edd70ec4a26a0efd8906903b0c6276dfacf25780b64736f6c63430008070033",
					"opcodes": "PUSH1 0x80 PUSH1 0x40 MSTORE CALLVALUE DUP1 ISZERO PUSH2 0x10 JUMPI PUSH1 0x0 DUP1 REVERT JUMPDEST POP CALLER PUSH1 0x1 PUSH1 0x0 PUSH2 0x100 EXP DUP2 SLOAD DUP2 PUSH20 0xFFFFFFFFFFFFFFFFFFFFFFFFFFFFFFFFFFFFFFFF MUL NOT AND SWAP1 DUP4 PUSH20 0xFFFFFFFFFFFFFFFFFFFFFFFFFFFFFFFFFFFFFFFF AND MUL OR SWAP1 SSTORE POP PUSH2 0x224 DUP1 PUSH2 0x61 PUSH1 0x0 CODECOPY PUSH1 0x0 RETURN INVALID PUSH1 0x80 PUSH1 0x40 MSTORE CALLVALUE DUP1 ISZERO PUSH2 0x10 JUMPI PUSH1 0x0 DUP1 REVERT JUMPDEST POP PUSH1 0x4 CALLDATASIZE LT PUSH2 0x36 JUMPI PUSH1 0x0 CALLDATALOAD PUSH1 0xE0 SHR DUP1 PUSH4 0x481C6A75 EQ PUSH2 0x3B JUMPI DUP1 PUSH4 0xF71D96CB EQ PUSH2 0x59 JUMPI JUMPDEST PUSH1 0x0 DUP1 REVERT JUMPDEST PUSH2 0x43 PUSH2 0x89 JUMP JUMPDEST PUSH1 0x40 MLOAD PUSH2 0x50 SWAP2 SWAP1 PUSH2 0x14E JUMP JUMPDEST PUSH1 0x40 MLOAD DUP1 SWAP2 SUB SWAP1 RETURN JUMPDEST PUSH2 0x73 PUSH1 0x4 DUP1 CALLDATASIZE SUB DUP2 ADD SWAP1 PUSH2 0x6E SWAP2 SWAP1 PUSH2 0x103 JUMP JUMPDEST PUSH2 0xAF JUMP JUMPDEST PUSH1 0x40 MLOAD PUSH2 0x80 SWAP2 SWAP1 PUSH2 0x169 JUMP JUMPDEST PUSH1 0x40 MLOAD DUP1 SWAP2 SUB SWAP1 RETURN JUMPDEST PUSH1 0x1 PUSH1 0x0 SWAP1 SLOAD SWAP1 PUSH2 0x100 EXP SWAP1 DIV PUSH20 0xFFFFFFFFFFFFFFFFFFFFFFFFFFFFFFFFFFFFFFFF AND DUP2 JUMP JUMPDEST PUSH1 0x0 DUP2 DUP2 SLOAD DUP2 LT PUSH2 0xBF JUMPI PUSH1 0x0 DUP1 REVERT JUMPDEST SWAP1 PUSH1 0x0 MSTORE PUSH1 0x20 PUSH1 0x0 KECCAK256 ADD PUSH1 0x0 SWAP2 POP SLOAD SWAP1 PUSH2 0x100 EXP SWAP1 DIV PUSH20 0xFFFFFFFFFFFFFFFFFFFFFFFFFFFFFFFFFFFFFFFF AND DUP2 JUMP JUMPDEST PUSH1 0x0 DUP2 CALLDATALOAD SWAP1 POP PUSH2 0xFD DUP2 PUSH2 0x1D7 JUMP JUMPDEST SWAP3 SWAP2 POP POP JUMP JUMPDEST PUSH1 0x0 PUSH1 0x20 DUP3 DUP5 SUB SLT ISZERO PUSH2 0x119 JUMPI PUSH2 0x118 PUSH2 0x1D2 JUMP JUMPDEST JUMPDEST PUSH1 0x0 PUSH2 0x127 DUP5 DUP3 DUP6 ADD PUSH2 0xEE JUMP JUMPDEST SWAP2 POP POP SWAP3 SWAP2 POP POP JUMP JUMPDEST PUSH2 0x139 DUP2 PUSH2 0x196 JUMP JUMPDEST DUP3 MSTORE POP POP JUMP JUMPDEST PUSH2 0x148 DUP2 PUSH2 0x184 JUMP JUMPDEST DUP3 MSTORE POP POP JUMP JUMPDEST PUSH1 0x0 PUSH1 0x20 DUP3 ADD SWAP1 POP PUSH2 0x163 PUSH1 0x0 DUP4 ADD DUP5 PUSH2 0x13F JUMP JUMPDEST SWAP3 SWAP2 POP POP JUMP JUMPDEST PUSH1 0x0 PUSH1 0x20 DUP3 ADD SWAP1 POP PUSH2 0x17E PUSH1 0x0 DUP4 ADD DUP5 PUSH2 0x130 JUMP JUMPDEST SWAP3 SWAP2 POP POP JUMP JUMPDEST PUSH1 0x0 PUSH2 0x18F DUP3 PUSH2 0x1A8 JUMP JUMPDEST SWAP1 POP SWAP2 SWAP1 POP JUMP JUMPDEST PUSH1 0x0 PUSH2 0x1A1 DUP3 PUSH2 0x1A8 JUMP JUMPDEST SWAP1 POP SWAP2 SWAP1 POP JUMP JUMPDEST PUSH1 0x0 PUSH20 0xFFFFFFFFFFFFFFFFFFFFFFFFFFFFFFFFFFFFFFFF DUP3 AND SWAP1 POP SWAP2 SWAP1 POP JUMP JUMPDEST PUSH1 0x0 DUP2 SWAP1 POP SWAP2 SWAP1 POP JUMP JUMPDEST PUSH1 0x0 DUP1 REVERT JUMPDEST PUSH2 0x1E0 DUP2 PUSH2 0x1C8 JUMP JUMPDEST DUP2 EQ PUSH2 0x1EB JUMPI PUSH1 0x0 DUP1 REVERT JUMPDEST POP JUMP INVALID LOG2 PUSH5 0x6970667358 0x22 SLT KECCAK256 DUP13 LOG0 CALLDATALOAD 0xB5 SWAP12 0xA9 0xEF 0xED LOG0 SWAP14 MSIZE 0x2E 0xDD PUSH17 0xEC4A26A0EFD8906903B0C6276DFACF2578 SIGNEXTEND PUSH5 0x736F6C6343 STOP ADDMOD SMOD STOP CALLER "
				},
				"gasEstimates": {
					"creation": {
						"codeDepositCost": "109600",
						"executionCost": "24425",
						"totalCost": "134025"
					},
					"external": {
						"manager()": "2492",
						"players(uint256)": "4956"
					}
				},
				"methodIdentifiers": {
					"manager()": "481c6a75",
					"players(uint256)": "f71d96cb"
				}
			},
			"storageLayout": {
				"storage": [
					{
						"astId": 4,
						"contract": "Lottery/lottery.sol:Lottery",
						"label": "players",
						"offset": 0,
						"slot": "0",
						"type": "t_array(t_address_payable)dyn_storage"
					},
					{
						"astId": 6,
						"contract": "Lottery/lottery.sol:Lottery",
						"label": "manager",
						"offset": 0,
						"slot": "1",
						"type": "t_address"
					}
				],
				"types": {
					"t_address": {
						"encoding": "inplace",
						"label": "address",
						"numberOfBytes": "20"
					},
					"t_address_payable": {
						"encoding": "inplace",
						"label": "address payable",
						"numberOfBytes": "20"
					},
					"t_array(t_address_payable)dyn_storage": {
						"base": "t_address_payable",
						"encoding": "dynamic_array",
						"label": "address payable[]",
						"numberOfBytes": "32"
					}
				}
			},
			"userdoc": {
				"kind": "user",
				"methods": {},
				"version": 1
			}
		}
	}
}